:020000020000FC
:100000000FEF0DBF08E00EBF00C000E00093C1007D
:1000100004E0009361000FE104B90FEF0AB93898CA
:10002000409A3998419A40E050E045B95BB903E005
:1000300005BD04E606BD7E306D79335B5F707F7B66
:10004000771F4E3D4F47F0E0E6E314911BB933278D
:1000500005B300FFFDCFA89A04E606BD13951A303C
:10006000B9F7439525B120714F70422B45B945171B
:1000700011F42C9A02C02C9800C006B1017029F02E
:1000800000C006B1027049F0E3CF0E946F0006B1D4
:100090000170B9F70E945500DBCF0E946F0006B1D6
:1000A0000270B1F60E946200D3CF53955F70F0E00A
:1000B000E6E3E50FF11D14912BB120781F77122B89
:1000C0001BB908955A955F70F0E0E6E3E50FF11D66
:1000D00014912BB120781F77122B1BB908951FEFB5
:1000E0002FEF3FE01A95F1F72A95E1F73A95D1F70E
:0200F000089571
:00000001FF
