:020000020000FC
:100000000FEF0DBF08E00EBF00C000E00093C1007D
:1000100004E0009361000FE104B90FEF0AB93898CA
:10002000409A3998419A3A98429A3B98439A3C9818
:10003000449A3D98459A40E050E045B95BB906B115
:10004000027089F000C006B10470C9F000C006B1AA
:10005000087009F100C006B1007161F100C006B17D
:100060000072B9F1ECCF0E94870006B1027059F717
:100070000E943B00E4CF43954F7045B908950E941C
:10008000870006B1047019F70E944700D8CF4A953F
:100090004F7045B908950E94870006B10870D9F6DF
:1000A0000E945300CCCF53955F70652F6295607F9F
:1000B0006BB908950E94870006B1007181F60E9415
:1000C0006200BDCF5A955F70652F6295607F6BB9F6
:1000D00008950E94870006B1007209F0B0CF0E9417
:1000E0007200ADCF752F7F70842F8F70780F40F026
:1000F00000C02C987F709BB1907F972B9BB908957F
:100100002C9A7F709BB1907F972B9BB908951FEF1E
:100110002FEF30E11A95F1F72A95E1F73A95D1F7EB
:02012000089540
:00000001FF
