:020000020000FC
:020000001FC01F
:02001000D0C15D
:020038006CC199
:02002C0086C18B
:100040000FEF0DBF08E00EBF00C000E80093610095
:1000500004E00093610000E00093C1000FE704B9E1
:1000600001E005B90FEF0AB90BB900E307B90FE0DA
:1000700008B902E0009368000FE000936C00BED165
:10008000C9D142E0552700270093000100930101E8
:1000900000930201009303010AE30093050107E1C5
:1000A0000093060100270093040104E10093070177
:1000B00006E00093080100E00093090100E00093CE
:1000C0000A0100930B0100930C0100930D010093B2
:1000D0000E0100930F010093100100931201009391
:1000E00013010093140106B10093150178949BD07D
:1000F000C1D0CAD007D060D010910F01113009F4DF
:100100002D98F5CF0F93042F003059F0013049F0AE
:100110000230B1F00330A1F0043009F10530F9F0FC
:1001200049C00091060173D0109300012093010192
:10013000009105016CD010930201209303011DC0B2
:100140000091070164D010930001209301010091F8
:1001500008015DD010930201209303010EC00091AD
:100160000A0155D01093000120930101009109016B
:100170004ED01093020120930301042F0170D1F09F
:10018000009112010030B1F4052F003039F0013038
:1001900049F0023051F0033059F00CC000270093B1
:1001A000000108C00093010105C00093020102C0D4
:1001B000009303010F9108950F93289829982A9886
:1001C0002B9800910B01003041F0013051F00230CA
:1001D00061F02B9A009103010BC0289A0091000155
:1001E00007C0299A0091010103C02A9A00910201D7
:1001F00002D00F910895EF93FF93F4E0E8E3E00F4E
:1002000008F4F39504910BB9FF91EF9108950F93C2
:100210003F9311270A3018F00A501395FBCF202F77
:100220003F910F91089500910F01013049F400278B
:1002300000930F014395463008F04427552701D01D
:1002400008950F931F9308B10F7C08B92D98042FC0
:10025000017021F000911201003049F0423030F07D
:10026000443010F0459A03C02D9A01C0449A1F9162
:100270000F910895042F013029F0033019F0053053
:1002800009F00895089508950F931F9300910601B2
:1002900010910A01011789F40091050110910901DB
:1002A000011759F401E0009314010091120100308C
:1002B00011F02C9A06C02C9804C00027009314015A
:1002C0002C981F910F9108950F931F93EF93FF9315
:1002D000009107010395109108011A95F4E0E2E4FA
:1002E000E10F1127F11F1491011760F001E0009355
:1002F00007010091080103950D3008F001E000931B
:10030000080102C000930701FF91EF911F910F9127
:1003100008950F930FB70F9300910C01039500936D
:100320000C0100910B010395043008F000270093A5
:100330000B010F910FBF0F9118950F931F930FB7DC
:100340000F930091120111E0012700931201009117
:1003500016010395043030F1002700931601009137
:10036000170103950C33D8F0002700931701009173
:10037000050103950C3380F00027009305010091DF
:1003800006010395083128F00027009306019CDF41
:100390000BC00093060108C00093050105C000933F
:1003A000170102C0009316010F910FBF1F910F910B
:1003B00018952D9A0F931F930FB70F9306B10F70D7
:1003C00000950F7000FF04C011E010930D0111C0E3
:1003D00001FF04C011E010930E010BC002FF04C026
:1003E00011E010930F0105C003FF03C011E010934B
:1003F00010010F910FBF1F910F91189502E004BDDE
:1004000003E005BD0EE307BD02E000936E00002788
:1004100006BD08950DE00093810008EE009388006A
:1004200001E00093890002E000936F000027009331
:1004300085000093840008957E306D79335B5F7092
:0E0440007F7B1F1C1F1E1F1E1F1F1E1F1E1F47
:00000001FF
