:020000020000FC
:020000001CC022
:02001000B5C079
:100038008DC00FEF0DBF08E00EBF00C000E80093B1
:10004800610004E00093610000E00093C1000FE745
:1000580004B901E105B90FEF0AB90BB900E007B916
:100068000FE008B902E0009368000FE000936C000D
:1000780082D04427552700270093000100930101EF
:10008800009302010093030100930401009305010A
:1000980000930601009307010093080100930901EA
:1000A80000930A0100930B0100930C0100930D01CA
:1000B80000930E0100930F010093100100931101AA
:1000C8000093120100931301789400910B0140985A
:1000D800419842984398003029F0013029F00230C5
:1000E80029F006C0409A05C0419A03C0429A01C04F
:1000F800439A0E94830003D025D027D0E6CF0F93E0
:100108001F93EF93FF9340910B01403039F041303A
:1001180041F0423049F00091030108C0009100010C
:1001280005C00091010102C000910201F1E0E6E979
:10013800E00F1127F11F04910BB9FF91EF911F9167
:100148000F91089508950895089508950F930FB78E
:100158000F9300910C01039500930C0100910B0182
:100168000395043008F0002700930B010F910FBF8F
:100178000F911895189502E004BD03E005BD0CE940
:1001880007BD02E000936E00002706BD08957E308B
:100198006D79335B5F707F7B1F1C1F1E1F1E1F1F27
:0401A8001E1F1E1FD9
:00000001FF
