:020000020000FC
:100000000FEF0DBF08E00EBF00C000E00093C1007D
:1000100004E0009361000FE004B90FEF0AB93898CB
:10002000409A3998419A40E050E045B95BB903E005
:1000300005BD04E606BD02E00093680003E00093FE
:100040006C0000E0009300010093010100930201A5
:1000500078947E306D79335B5F707F7B771F4E3D88
:100060004F47F0E0E2E514911BB900910101013026
:1000700051F40091000103950F700093000105B940
:1000800000E00093010100910201013071F700913D
:1000900000010A950F700093000105B900E000937C
:1000A00002010F930FB70F931F9306B1309B07C048
:1000B000109100011A951F701093000115B9319B22
:1000C00007C0109100011A951F701093000115B917
:0A00D0001F910F910FBF0F911895BB
:00000001FF
