:020000020000FC
:020000001CC022
:02001000BBC073
:1000380095C00FEF0DBF08E00EBF00C000E80093A9
:10004800610004E00093610000E00093C1000FE04C
:1000580004B9002705B90FEF0AB90BB90CE007B9C5
:100068000BE008B902E00093680003E000936C001D
:100078000E948D0000270093000100930101009366
:10008800020100930301009304010093050100930A
:100098000601789400910301013019F0429A4398BF
:1000A80002C0439A42980E949900009104010436C4
:1000B80099F40027009304010091010110910201B5
:1000C80003950A3029F400271395163009F41127EF
:1000D800009301011093020100910501013051F4D0
:1000E8000091000103950F700093000105B90027E6
:1000F8000093050100910601013061F600910001AD
:100108000A950F700093000105B9002700930601B6
:10011800C1CF02E004BD03E005BD0CE907BD02E064
:1001280000936E00002706BD08950F931F93EF9369
:10013800FF9340910301403019F00091020102C081
:1001480000910101F1E0E0EBE00F1127F11F0491AC
:100158000BB9FF91EF911F910F9108950F930FB76E
:100168000F9300910401039500930401009103018A
:1001780011E00127009303010F910FBF0F9118950C
:100188000F930FB70F9306B100FF03C001FF05C01F
:1001980007C001E00093050103C001E000930601D8
:1001A8000F910FBF0F9118957E306D79335B5F709B
:0201B8007F7B4B
:00000001FF
