:100000000C9434000C9451000C9451000C94510049
:100010000C9451000C9451000C9451000C9451001C
:100020000C9451000C9451000C9451000C9451000C
:100030000C9451000C9451000C9451000C945100FC
:100040000C9451000C9451000C9451000C945100EC
:100050000C9451000C9461000C9451000C945100CC
:100060000C9451000C94510011241FBECFEFD8E026
:10007000DEBFCDBF11E0A0E0B1E0E8EFFDE002C0DF
:1000800005900D92AA3BB107D9F721E0AAEBB1E0A8
:1000900001C01D92A23EB207E1F70E9443030C94F7
:1000A000FA060C94000080E480937C00EAE7F0E01C
:1000B0008FE880838FE380937E00808180648083DB
:1000C00008951F920F920FB60F9211248F939F9352
:1000D000EF93FF93E091BA01F0E080917800909166
:1000E0007900EE0FFF1FE554FE4F918380838091CE
:1000F000BA018F5F8093BA018091BA01843010F009
:100100001092BA01ECE7F0E090818091BA01907F03
:100110008F70892B8083EAE7F0E0808180648083A0
:10012000FF91EF919F918F910F900FBE0F901F90B5
:100130001895F999FECF92BD81BD60BD8FB38460E3
:100140008FBB8FB382608FBB0895F999FECF92BDAC
:1001500081BD8FB381608FBB80B50895E1E6F0E08B
:1001600080E8808382E080838AB180678AB98BB11E
:100170008F788BB90895CF92DF92EF92FF92CF9351
:10018000DF93CBEBD1E028813981ADE7B0E00E946D
:10019000F1030F2ECC24CA94F3E0DF2EE12CF12CD6
:1001A000F02DA70196010E94CF03215E2093CE017E
:1001B0008091CE010E949A032A813B81ADE7B0E095
:1001C0000E94F103A70196010E94CF03215E2093B4
:1001D000CD018091CD010E949D032C813D81A4EF32
:1001E000B1E00E94F103A70196010E94CF032358BA
:1001F0003F4F3093CC012093CB018091CB01909164
:10020000CC010E947E032E813F81A4EFB1E00E94C9
:10021000F103A70196010E94CF0323583F4F30936B
:10022000CA012093C9018091C9019091CA010E941D
:100230008303DF91CF91FF90EF90DF90CF900895EF
:10024000282F30E0ADE7B0E00E94F10324EB30E06E
:1002500040E050E00E94CF038FE1820F0895282FE5
:1002600030E0A4EFB1E00E94F10324EB30E040E085
:1002700050E00E94CF03C90183589F4F08958130F9
:1002800061F028F0823079F0833099F00895862F5C
:100290000E9420010E949A030895862F0E94200147
:1002A0000E949D030895862F0E942F010E947E03C5
:1002B0000895862F0E942F010E9483030895CF93F3
:1002C000DF936091B30080E090E00E94990060911C
:1002D000B40081E090E00E949900C8E8D0E0688115
:1002E000798182E090E00E94990088819981692F4C
:1002F00083E090E00E949900CAE8D0E068817981AB
:1003000084E090E00E94990088819981692F85E0BE
:1003100090E00E949900DF91CF910895CF93DF93F1
:1003200080E090E00E94A5000E949A0381E090E0A6
:100330000E94A5000E949D0382E090E00E94A5001B
:10034000C82FD0E083E090E00E94A50090E0982FB5
:1003500088278C2B9D2B0E947E0384E090E00E94D6
:10036000A500C82FD0E085E090E00E94A50090E0B5
:10037000982F88278C2B9D2B0E948303DF91CF9190
:1003800008958F3108F48FE1A82FB0E05F9724EB38
:1003900030E00E9400042DE730E040E050E00E9491
:1003A000CF03822F08958D37910510F48DE790E0EB
:1003B0009C012D573109A4EBB0E00E94F10324EF1A
:1003C00031E040E050E00E94CF03822F08950F9368
:1003D0001F93CF93DF93CDB7DEB7A0970FB6F894F6
:1003E000DEBF0FBECDBF8091B3000E94C1011F923E
:1003F0008F9380E091E09F938F938E010F5F1F4F4B
:100400001F930F930E941004C8010E94BC038091A7
:10041000B4000E94C1011F928F9388E091E09F93E6
:100420008F931F930F930E941004C8010E94BC0376
:1004300080918800909189000E94D3011F928F9330
:1004400080E191E09F938F931F930F930E9410047C
:10045000C8010E94BC0380918A0090918B000E9489
:10046000D3011F928F9388E191E09F938F931F9305
:100470000F930E941004C8010E94BC038091CF0119
:100480001F928F9380E291E09F938F931F930F931E
:100490000E941004C8010E94BC030FB6F894DEBF8E
:1004A0000FBECDBFA0960FB6F894DEBF0FBECDBF76
:1004B000DF91CF911F910F9108958091C701811114
:1004C00007C00E948E010E94E70181E08093C7016E
:1004D0008091CF01823011F01092C70108956AE235
:1004E00071E082ED91E00E940704892B91F48091E4
:1004F000CF018F5F8093CF018091CF01833010F0C7
:100500001092CF018CE291E00E94BC030E94E701AF
:1005100008956CE371E082ED91E00E940704892B5D
:1005200059F48091CF01811156C00E945F018EE382
:1005300091E00E94BC0308958091CF01813029F0A1
:1005400080E591E00E94BC0308958091D20183353B
:1005500029F08FE591E00E94BC0308958091D301BA
:100560008053843028F082E791E00E94BC03089514
:100570009091D4019A33B1F083E891E00E94BC03DA
:100580000895AB01440F551F660F771F660F771F45
:10059000660F771F640F751F620F711D605371091D
:1005A0009F5F03C093E060E070E0E92FF0E0EE525F
:1005B000FE4F208130ED320F3A3018F3653B710564
:1005C00010F064EB70E00E943F0186E991E00E9428
:1005D000BC030E94E70108958091D0018823D9F1DE
:1005E0001092D0018091D1018D3021F08091D10104
:1005F0008A30C9F48091C801882369F1E091C8016B
:10060000F0E0EE52FE4F10820E946F021092C8017D
:1006100080E006C0E82FF0E0EE52FE4F10828F5FC0
:100620008031C0F308958091C8018F3070F4E0915B
:10063000C801F0E08091D101EE52FE4F808380919D
:10064000C8018F5F8093C80108951092C8018AEA9B
:1006500091E00E94BC0308958BB18F788BB9809193
:10066000CF01813041F018F0823049F008958BB10C
:1006700080618BB908958BB180628BB908958BB17D
:1006800080648BB90895F8940E94AE000E945300D4
:100690000E9488030E9464030E94A00378940E9431
:1006A000EC020E942C038091CF018130C1F318F03D
:1006B000823021F006C00E94BB00F1CF0E945D0293
:1006C000EECF1092CF01EBCF84B1866084B982EA7D
:1006D000809380008AE1809381008FE39CE990936E
:1006E00087008093860088EB9BE09093890080933D
:1006F000880090938B0080938A00089590938900DE
:1007000080938800089590938B0080938A000895C9
:1007100084B1886084B98AB188608AB983EA809399
:10072000B00084E08093B10085E18093B3008093B2
:10073000B40008958093B30008958093B4000895A1
:100740008AB182608AB98AB18E7F8AB91092C0005C
:1007500088E98093C10086E08093C20085E090E044
:100760009093C5008093C40008959091C00095FFB8
:10077000FCCF8093C60008950F931F93CF938C01F5
:10078000C0E003C00E94B503CF5FF801EC0FF11D7C
:1007900080818111F7CFCF911F910F910895A1E230
:1007A0001A2EAA1BBB1BFD010DC0AA1FBB1FEE1FEB
:1007B000FF1FA217B307E407F50720F0A21BB30B36
:1007C000E40BF50B661F771F881F991F1A9469F7B2
:1007D00060957095809590959B01AC01BD01CF010E
:1007E0000895A29FB001B39FC001A39F700D811D0A
:1007F0001124911DB29F700D811D1124911D08952A
:100800000E94F103B7FF0895821B930B0895FB012B
:10081000DC018D91019080190110D9F3990B089595
:10082000AEE0B0E0E6E1F4E00C94D1060D891E895B
:1008300086E08C831A8309838FEF9FE79E838D83E5
:10084000AE01475E5F4F6F89788DCE0101960E94A1
:100850003204EF81F885E00FF11F10822E96E4E05C
:100860000C94ED06ABE0B0E0E8E3F4E00C94C306D2
:100870006C017B018A01FC0117821682838181FF52
:10088000CCC1CE0101963C01F6019381F70193FDA5
:10089000859193FF81917F01882309F4BAC1853244
:1008A00039F493FD859193FF81917F01853229F47D
:1008B000B60190E00E942906E7CF912C212C312C23
:1008C000FFE1F315D8F08B3279F038F4803279F00B
:1008D0008332A1F4232D20611DC08D3261F080335D
:1008E00069F4232D216016C0832D8260382EE32DFC
:1008F000E4603E2E2AC0F32DF8601DC037FC2DC0E9
:1009000020ED280F2A3040F08E32B9F436FC81C138
:10091000232D2064322E19C036FE06C08AE0989E30
:10092000200D1124922E11C0EAE02E9E200D1124DC
:10093000222EF32DF0623F2E08C08C3621F4832D39
:100940008068382E02C0883641F4F70193FD859106
:1009500093FF81917F018111B3CF982F9F7D955493
:10096000933028F40C5F1F4F9FE399830DC08336AB
:1009700031F0833771F0833509F059C021C0F80197
:10098000808189830E5F1F4F88248394912C5301AB
:1009900013C02801F2E04F0E511CF801A080B18075
:1009A00036FE03C0692D70E002C06FEF7FEFC50116
:1009B0000E941E064C018201F32DFF773F2E16C0C8
:1009C000280122E0420E511CF801A080B18036FEC1
:1009D00003C0692D70E002C06FEF7FEFC5010E9478
:1009E00013064C01F32DF0683F2E820133FC1BC02F
:1009F000822D90E088169906B0F4B60180E290E06E
:100A00000E9429062A94F4CFF50137FC859137FE20
:100A100081915F01B60190E00E94290621102A947D
:100A200021E0821A91088114910471F7E8C084369C
:100A300011F0893641F5F80137FE07C060817181F8
:100A4000828193810C5F1F4F08C060817181072EE6
:100A5000000C880B990B0E5F1F4FF32DFF763F2E76
:100A600097FF09C090958095709561957F4F8F4F46
:100A70009F4FF0683F2E2AE030E0A3010E946506F8
:100A8000882E861845C0853731F4232D2F7EB22E4F
:100A90002AE030E025C0932D997FB92E8F36C1F022
:100AA00018F4883579F0B5C0803719F0883721F00F
:100AB000B0C0E92FE061BE2EB4FE0DC0FB2DF46086
:100AC000BF2E09C034FE0AC0292F2660B22E06C0F0
:100AD00028E030E005C020E130E002C020E132E053
:100AE000F801B7FE07C060817181828193810C5F3C
:100AF0001F4F06C06081718180E090E00E5F1F4F44
:100B0000A3010E946506882E8618FB2DFF773F2ED5
:100B100036FE0DC0232D2E7FA22E891458F434FEEC
:100B20000BC032FC09C0832D8E7EA82E05C0B82CC8
:100B3000A32C03C0B82C01C0B92CA4FE0FC0FE0129
:100B4000E80DF11D8081803321F49A2D997EA92E24
:100B500009C0A2FE06C0B394B39404C08A2D86785F
:100B600009F0B394A3FC11C0A0FE06C0B21488F42F
:100B7000280C922C9B180EC0B21460F4B60180E2CF
:100B800090E00E942906B394F7CFB21418F42B1802
:100B900002C0982C212CA4FE10C0B60180E390E086
:100BA0000E942906A2FE17C0A1FC03C088E790E0BE
:100BB00002C088E590E0B6010CC08A2D867859F015
:100BC000A1FE02C08BE201C080E2A7FC8DE2B6016B
:100BD00090E00E942906891438F4B60180E390E081
:100BE0000E9429069A94F7CF8A94F301E80DF11D2B
:100BF0008081B60190E00E9429068110F5CF222065
:100C000009F442CEB60180E290E00E9429062A94BF
:100C1000F6CFF6018681978102C08FEF9FEF2B966A
:100C2000E2E10C94DF06FC01059061507040011078
:100C3000D8F7809590958E0F9F1F0895FC01615005
:100C4000704001900110D8F7809590958E0F9F1FEE
:100C500008950F931F93CF93DF93FB01238121FD11
:100C600003C08FEF9FEF2CC022FF16C04681578133
:100C7000248135814217530744F4A081B1819D013D
:100C80002F5F3F4F318320838C93268137812F5FE5
:100C90003F4F3783268314C08B01EC01FB01008496
:100CA000F185E02D0995892BE1F6D80116968D91F5
:100CB0009C911797019617969C938E931697CE0149
:100CC000DF91CF911F910F910895FA01AA27283043
:100CD00051F1203181F1E8946F936E7F6E5F7F4F09
:100CE0008F4F9F4FAF4FB1E03ED0B4E03CD0670F85
:100CF000781F891F9A1FA11D680F791F8A1F911DD8
:100D0000A11D6A0F711D811D911DA11D20D009F427
:100D100068943F912AE0269F11243019305D319369
:100D2000DEF6CF010895462F4770405D4193B3E052
:100D30000FD0C9F7F6CF462F4F70405D4A3318F0F9
:100D4000495D31FD4052419302D0A9F7EACFB4E0AA
:100D5000A6959795879577956795BA95C9F7009762
:100D60006105710508959B01AC010A2E0694579503
:100D7000479537952795BA95C9F7620F731F841F5A
:100D8000951FA01D08952F923F924F925F926F92F0
:100D90007F928F929F92AF92BF92CF92DF92EF920B
:100DA000FF920F931F93CF93DF93CDB7DEB7CA1B8C
:100DB000DB0B0FB6F894DEBF0FBECDBF09942A88B7
:100DC000398848885F846E847D848C849B84AA845F
:100DD000B984C884DF80EE80FD800C811B81AA81EC
:100DE000B981CE0FD11D0FB6F894DEBF0FBECDBFB7
:080DF000ED010895F894FFCF16
:100DF80050303A25750D0A0050313A25750D0A0014
:100E080050323A25750D0A0050333A25750D0A00FF
:100E18004D4F44453A25750D0A004D004D6F646FDE
:100E28002063616D626961646F0D0A005300454576
:100E380050524F4D2067756172646164610D0A00FC
:100E48004E6F2055415254206D6F64650D0A004362
:100E58006F6D616E646F20696E76616C69646F0D89
:100E68000A00536572766F20696E76616C69646FEB
:100E78000D0A00466F726D61746F20696E76616C41
:100E880069646F0D0A00536572766F20616374752B
:100E9800616C697A61646F0D0A00427566666572F5
:0A0EA800206C6C656E6F0D0A0000EF
:00000001FF
