:100000000C9434000C9449000C9449000C94490061
:100010000C9449000C9449000C9449000C9449003C
:100020000C9449000C9449000C9449000C9449002C
:100030000C9449000C9449000C9449000C9449001C
:100040000C9449000C9449000C9449000C9449000C
:100050000C9449000C9449000C9449000C944900FC
:100060000C9449000C94490011241FBECFEFD8E036
:10007000DEBFCDBF11E0A0E0B1E0E8E9F1E002C0F1
:1000800005900D92A031B107D9F70E94B4000C94ED
:10009000CA000C9400001092C50087E68093C4004B
:1000A00088E18093C10086E08093C200089590911A
:1000B000C00095FFFCCF8093C60008950F931F9357
:1000C000CF938C01C0E003C00E945700CF5FF801BE
:1000D000EC0FF11D80818111F7CFCF911F910F910E
:1000E00008958091C000807808958091C600089599
:1000F000982F9F7395B986FF04C09BB194609BB9FC
:1001000003C09BB19B7F9BB9882324F48BB188608B
:100110008BB908958BB1877F8BB90895CF93DF9307
:1001200000D000D0CDB7DEB719821A821B821C82A4
:100130000BC089819A81AB81BC810196A11DB11D43
:1001400089839A83AB83BC8389819A81AB81BC818B
:100150008039904DA340B10560F30F900F900F9040
:100160000F90DF91CF9108950E944B008FEF84B9DB
:100170008AB18C608AB980E091E00E945E000E94A2
:100180007100882321F00E9475000E9478000E946F
:080190008E00F1CFF894FFCFBF
:100198004C6F72656D2053696D706F7369756D0072
:00000001FF
